:020000040800F2
:10200000F018002089210008612D00089D2B000890
:102010005D2D00083922000845310008000000004D
:102020000000000000000000000000002D2E00084D
:102030004128000800000000E92D0008A52F000835
:10204000A3210008A3210008A3210008A321000860
:10205000A3210008A3210008A3210008A321000850
:10206000A3210008A3210008A3210008A321000840
:10207000A3210008A3210008A3210008A321000830
:10208000A3210008A3210008A3210008A321000820
:1020900021310008A3210008A3210008E928000835
:1020A000A3210008A3210008A3210008A321000800
:1020B00009300008A3210008A3210008A32100087B
:1020C000A3210008A3210008A3210008A3210008E0
:1020D000A321000861300008A3210008A321000803
:1020E00045280008A3210008A321000800F002F8F9
:1020F00000F03AF80AA090E8000C82448344AAF168
:102100000107DA4501D100F02FF8AFF2090EBAE865
:102110000F0013F0010F18BFFB1A43F0010318471B
:102120004811000068110000103A24BF78C878C137
:10213000FAD8520724BF30C830C144BF04680C60CD
:10214000704700000023002400250026103A28BF15
:1021500078C1FBD8520728BF30C148BF0B60704719
:102160001FB51FBD10B510BD00F033F81146FFF7C5
:10217000F7FF01F035F800F051F803B4FFF7F2FF74
:1021800003BC00F0E1FF0000094880470948004710
:10219000FEE7FEE7FEE7FEE7FEE7FEE7FEE7FEE717
:1021A000FEE7FEE704480549054A064B7047000074
:1021B000A92F0008ED200008F0040020F0180020EE
:1021C000F0080020F0080020704770477047704703
:1021D0007047754600F02CF8AE4605006946534638
:1021E00020F00700854618B020B5FFF7DBFFBDE8FB
:1021F00020404FF000064FF000074FF000084FF06E
:10220000000B21F00701AC46ACE8C009ACE8C009FE
:10221000ACE8C009ACE8C0098D46704710B504466B
:10222000AFF300802046BDE81040FFF7A6BF0000D6
:10223000004870479004002000BFFEE710B5002161
:10224000837A012202FA03F13D4A126842F0010248
:102250003B4B1A603A4A1C3212688A43384B1C3393
:102260001A60027BCAB9364A0C3212688A43344B70
:102270000C331A604288C38842EA0343304A403232
:10228000847A42F834300288838842EA03432C4A35
:102290004032847A02EBC4025360027B012A19D1D6
:1022A000274A0C3212680A43254B0C331A604288C5
:1022B000038842EA0343224A4032847A42F83430A7
:1022C000C288838842EA03431D4A4032847A02EB83
:1022D000C4025360C27A3AB9194A121D12688A437D
:1022E000174B1B1D1A6006E0154A121D12680A439F
:1022F000134B1B1D1A60028932B9114A143212683D
:102300008A430F4B14331A600289012A06D10C4A02
:10231000143212680A430A4B14331A60427B012AB2
:1023200006D1074A1C3212680A43054B1C331A6057
:10233000034A126822F00102014B1A6010BD00002E
:10234000006600401AB143690B43436102E04369F0
:102350008B434361704730B5024600200023146868
:1023600024F002041460146844F00104146000E0D6
:102370005B1C546804F001041CB94FF6FF74A342BF
:10238000F6D1546804F001040CB900206CE08C799B
:10239000012C04D1146844F08004146003E0146834
:1023A00024F080041460CC79012C04D1146844F02A
:1023B0004004146003E0146824F0400414600C7AB4
:1023C000012C04D1146844F02004146003E0146864
:1023D00024F0200414604C7A012C04D1146844F0D9
:1023E0001004146003E0146824F0100414608C7A64
:1023F000012C04D1146844F00804146003E014684C
:1024000024F008041460CC7A012C04D1146844F040
:102410000404146003E0146824F0040414608C784D
:10242000A407CD7844EA05640D7944EA05444D7962
:1024300044EA05540D886D1E2C43D461146824F0C1
:1024400001041460002300E05B1C546804F00104E4
:102450001CB14FF6FF74A342F6D1546804F0010496
:102460000CB1002000E0012030BD00002DE9F0415A
:102470008AB004460D4616461F46DDF8408001210D
:10248000042000F0C3FC0121480600F0AFFC4FF42B
:102490008050ADF8240003208DF8260018208DF818
:1024A000270009A92D4800F07DFA4FF40060ADF82F
:1024B000240048208DF8270009A9284800F072FA66
:1024C00000208DF81E008DF81F008DF820000120DF
:1024D0008DF8210000208DF822008DF823008DF862
:1024E0001A808DF81B408DF81C608DF81D50ADF8DA
:1024F000187006A91A48FFF72EFF00208DF8120069
:102500008DF8130001208DF814000020ADF80800AC
:10251000ADF80A00ADF80C00ADF80E00ADF81000F3
:1025200001208DF8150002A8FFF788FE0122022184
:102530000B48FFF707FF14208DF8040001208DF8E9
:10254000050000208DF8060001208DF8070001A885
:1025500000F008FC00200AB0BDE8F081000801404E
:102560000064004010B500F5D87303EB01131B683D
:1025700003F004031372137A53B900F5D87303EB15
:1025800001131B6840F2FF7404EA5353136009E01F
:1025900000F5D87303EB01131B686FF0604404EA85
:1025A000D303536000F5D87303EB01131B6803F0EA
:1025B0000203537200F5D87303EB01135B6803F059
:1025C0000F03937200F5D87303EB01135B681B0ACA
:1025D000D37400F5D87303EB01139B68D37200F535
:1025E000D87303EB01139B681C0A147300F5D873AE
:1025F00003EB01139B681C0C547300F5D87303EBB9
:1026000001139B681B0E937300F5D87303EB011342
:10261000DB68D37300F5D87303EB0113DB681C0A86
:10262000147400F5D87303EB0113DB681C0C5474AD
:1026300000F5D87303EB0113DB681B0E937421B90B
:10264000C36843F02003C36003E0036943F0200341
:10265000036110BD10B502460020936803F080634B
:10266000B3F1806F00D110E0936803F00063B3F121
:10267000006F01D1012008E0936803F08053B3F1AB
:10268000805F01D1022000E00420042874D002F50C
:10269000C07303EB00131B6803F0010402F5C07361
:1026A00003EB00131C600B7A7BB94B7A0C8843EA6E
:1026B000445302F5C07404EB00142468234302F56C
:1026C000C07404EB0014236010E00B7A4C6843EAFA
:1026D000C4034C7A234302F5C07404EB001424684D
:1026E000234302F5C07404EB001423608B7A03F0DB
:1026F0000F038B7202F5C07303EB00135B6823F0CA
:102700000F0402F5C07303EB00135C6002F5C073A5
:1027100003EB00135B688C7A234302F5C07404EB6F
:10272000001463608B7B1C064B7B44EA03440B7BE9
:1027300044EA0323CC7A234302F5C07404EB00146B
:10274000A3608B7C1C064B7C44EA03440B7C44EA6C
:102750000323CC7B234302F5C07404EB0014E36035
:1027600002F5C07303EB00131B6843F0010402F58C
:10277000C07303EB00131C6010BD000010B50246CF
:10278000002321B1012907D002290FD109E0906867
:102790001D4C00EA04030BE090681C4C00EA0403A3
:1027A00006E090681A4C00EA040301E0002300BF31
:1027B00000BF184C181BA34216D007DC83B16FF082
:1027C0008060184470B1022818D111E0B0F5007F84
:1027D00010D0114C204448B1B0F5003F0ED10BE0B1
:1027E00002230DE000230BE0002309E0002307E0B3
:1027F000012305E0012303E0012301E0002300BFE2
:1028000000BFD8B210BD00000300000400030008A0
:1028100000000310000100080001FFF721B1026869
:1028200042F00102026004E002684FF6FE731A40B3
:10283000026070470146486880B270474160704747
:102840007047000010B54FF4806000F09FF8012839
:102850003BD181021D4800F079F990BB4FF08040D8
:1028600000F0F1FB1A49098808441A4948801A49BE
:102870001A480078001D085C1E281CDA154841889B
:1028800016480078001DC0EB0010154A02EB8002CC
:10289000114B12480078001D185C22F810101946E0
:1028A0000E480078001D085C401CC1B21A460B4857
:1028B0000078001D115401210A4A08480078001DC3
:1028C00011544FF4806000F05BF810BD0008014027
:1028D0001A0000203C0000207A0200202200002084
:1028E0005E0000205400002010B54FF4007000F08E
:1028F0004DF8012834D141021A4800F027F958BB9D
:102900004FF0804000F09FFB1749098808441749A1
:102910000880174817490978405C1E2817DA1348C1
:10292000008814490978C1EB0111134A02EB8101B7
:102930000F4A104B1B78D25C21F812000C480D494D
:102940000978405C401C0A490A4A127888540120E0
:102950000A49084A127888544FF4007000F010F8C1
:1029600010BD0000000801401A0000203C000020BB
:102970007A020020220000205E0000205400002087
:10298000014908607047000014040140014600201E
:10299000034A12680A400AB1012000E00020704793
:1029A000140401402DE9F0410246002500260020D4
:1029B00000230024002791F803C00CF00F0591F8C4
:1029C00003C00CF0100CBCF1000F03D091F802C052
:1029D0004CEA050591F800C0BCF1000F31D0146835
:1029E00000202BE04FF0010C0CFA00F3B1F800C00E
:1029F0000CEA03069E4220D183004FF00F0C0CFA24
:102A000003F7BC4305FA03FC4CEA040491F803C045
:102A1000BCF1280F06D14FF0010C0CFA00FCC2F8F3
:102A200014C00AE091F803C0BCF1480F05D14FF083
:102A3000010C0CFA00FCC2F810C0401C0828D1D3CD
:102A40001460B1F800C0BCF1FF0F34DD5468002001
:102A50002EE000F1080C4FF0010808FA0CF3B1F871
:102A600000C00CEA03069E4221D183004FF00F0CF8
:102A70000CFA03F7BC4305FA03FC4CEA040491F892
:102A800003C0BCF1280F05D100F1080C08FA0CF8BE
:102A9000C2F8148091F803C0BCF1480F07D100F1CF
:102AA000080C4FF0010808FA0CF8C2F81080401C1E
:102AB0000828CED35460BDE8F0810000F0B50A4686
:102AC000002300240021002500F00046B6F1004F4D
:102AD00002D11D4EF16901E01B4E7168C0F3034540
:102AE00083B200F44016B6F5401F08D121F07061A2
:102AF000154E766826F07066134F7E6012E000F483
:102B00008016B6F5801F06D1032606FA05F4A14308
:102B100041F0706106E0460D360103FA06F6B14356
:102B200041F0706122B1460D360103FA06F63143D9
:102B300000F00046B6F1004F02D1034EF16101E012
:102B4000014E7160F0BD000000000140024600200F
:102B500093680B400BB1012000E000207047016139
:102B6000704700000B4909680B4A11600949091DAB
:102B70000968516007490831096891601146096880
:102B8000526801EB5201044A926801EB9201490834
:102B900001607047E8F7FF1F8402002000BFFEE7D6
:102BA0000FB410B502987D281AD19DF813000128A2
:102BB00016D19DF8140098B99DF8150080B99DF8BC
:102BC000160068B99DF8170050B99DF8180038B97B
:102BD0009DF8190020B99DF81A0008B900F036F8E0
:102BE00002987F2825D11448FFF7BCFF9DF81300F9
:102BF00001281ED19DF814100F480068000E814274
:102C000017D19DF815000C490968C1F307418842A6
:102C10000FD19DF8160008490988C1F307218842A1
:102C200007D19DF8170004490978884201D100F0C6
:102C3000FBFA10BC5DF814FB440000200148024977
:102C4000086070470020000808ED00E008B5022089
:102C500005230F22812100907B2000F0E9F808BDB8
:102C60002DE9F04186B005468846164600240195B8
:102C7000029500208DF80C008DF80D008DF80E6087
:102C800000BF06E018F804100DF10F000155601C9C
:102C900084B2B442F6DB01A90D48FFF7DBFC07461E
:102CA000002401E0601C84B239460948FFF766FD44
:102CB000012803D040F6FF708442F3DB40F6FF703A
:102CC000844203DB012006B0BDE8F0810020FAE772
:102CD0000064004008B50121142000F097F84FF47B
:102CE0006040ADF8000048208DF8030069460748B1
:102CF000FFF758FE0420ADF8000048208DF80300CF
:102D000069460348FFF74EFE08BD00000010014071
:102D10000008014008B50121082000F077F80121E2
:102D2000084600F073F801210A48FFF7C7FE0820A3
:102D3000ADF8000010208DF8030003208DF802008C
:102D400069460548FFF72EFE08210348FFF707FFF5
:102D500008BD000000023000000C014000BFFEE78B
:102D60007047000070B5002100230F22C47804B31F
:102D7000154C246804F4E064C4F5E064210AC1F150
:102D80000403CA40447804FA03F1847814402143D0
:102D900009010E4C0678A155047804F01F050124A2
:102DA000AC4005786D11AD0005F1E025C5F8004196
:102DB00009E0047804F01F050124AC40044D0678B6
:102DC000761145F8264070BD0CED00E000E400E00F
:102DD00080E100E002490143024A116070470000AF
:102DE0000000FA050CED00E07047000029B1064A2A
:102DF000D2690243044BDA6104E0034AD269824398
:102E0000014BDA61704700000010024029B1064A08
:102E100092690243044B9A6104E0034A9269824337
:102E2000014B9A617047000000100240704700009B
:102E30002DE9FC4107460C4615461E46DDF820806C
:102E40000020009001901248FFF78CFE8DF80040A2
:102E50000F480068000E8DF801000D480068000C56
:102E60008DF802000A480088000A8DF8030008481F
:102E700000788DF804008DF805508DF806608DF807
:102E80000780082269463846FFF7EAFEBDE8FC8164
:102E90004400002010B500F001F810BD0CB5002072
:102EA000019000903348006840F480303149086058
:102EB00000BF3048006800F4003000900198401CCA
:102EC0000190009818B90198B0F5A06FF1D1294888
:102ED000006800F4003010B10120009001E00020F3
:102EE00000900098012843D12348006840F010006A
:102EF000214908600846006820F003000860084681
:102F0000006840F0020008601A48406819494860AB
:102F10000846406848600846406840F48060486061
:102F20000846406820F47C1048600846406840F439
:102F3000E81048600846006840F08070086000BFF4
:102F40000C48006800F000700028F9D0094840687B
:102F500020F00300074948600846406840F002003E
:102F6000486000BF0348406800F00C000828F9D111
:102F70000CBD00000010024000200240042808D1CF
:102F80004FF0E021096941F004014FF0E0221161A6
:102F900007E04FF0E021096921F004014FF0E02241
:102FA000116170477047000010B51348006840F089
:102FB00001001149086008464068104908400E4960
:102FC0004860084600680E4908400B4908600846FA
:102FD000006820F4802008600846406820F4FE0065
:102FE00048604FF41F008860FFF754FF4FF0006007
:102FF0000449086010BD0000001002400000FFF806
:10300000FFFFF6FE08ED00E010B50121880700F093
:103010001DF8012811D109480088401C0749088083
:103020000846008841F27071884202DD0846034973
:1030300008800121880700F003F810BD420000203D
:10304000CA43028270470146888C704702460020BE
:10305000138A0B400BB1012000E0002070470000F4
:1030600010B5002400BF40F22441134800F02EF8B0
:1030700000B311480488001D048801200F4908701E
:1030800000210F48FFF7CAFB0D48FFF7D3FB4FF6AF
:10309000FF71081A0B49088000200B49094A128861
:1030A00088544FF6FF710648FFF7C8FB012104481A
:1030B000FFF7B4FB10BD00000038014052000020B3
:1030C00058000240500000209002002070B50246D7
:1030D000002400230025002040F66A16B14200D1EA
:1030E00000BFC1F3421501F01F03012606FA03F3E6
:1030F000012D02D19689334006E0022D02D1168AB5
:10310000334001E0968A33400C12012606FA04F49B
:103110001688344013B10CB1012000E0002070BDCE
:1031200000B587B002AA00210548FFF71BFA0698F0
:10313000009002A80FC8FFF733FD07B000BD0000E4
:103140000064004000BFFEE7014600BF704700007A
:1031500010B56FF00400FFF711FF0A4800680A4934
:10316000B0FBF1F0094908700846007800EB400117
:10317000C1EBC0104FF6FF7101EAC000044908809E
:1031800010BD00000000002000127A00480000205E
:103190004A0000200146114A12884A434FF0E023BA
:1031A0005A6100229A611A46126942F001021A61BC
:1031B00000BF4FF0E022106900F001021AB100F4E4
:1031C0008032002AF5D04FF0E022126922F001028D
:1031D0004FF0E0231A6100229A6170474A000020F4
:1031E00008B5FFF72BFDFFF7B3FFFFF773FDFFF700
:1031F00091FD4FF4A060FFF7EDFD002004230822AD
:1032000007210090FFF732F90BE04FF4FA70FFF757
:10321000C1FF0448006808B9012000E0002001490E
:103220000860F2E78C8121424FF6FF7100E000BF99
:10323000081EA1F10101FAD1012080F3138800BF1B
:1032400000BF0748006800F4E060064A1043001D14
:10325000034A1060BFF34F8F00BF00BFFEE70000BE
:103260000CED00E00000FA058832000800000020A4
:103270005400000028210008DC320008540000201F
:103280009C1800004421000800A24A04000000002D
:103290000000000001020304060708090000F40111
:1032A0001400A406F609000B01010100010204014B
:1032B000030000000000000000000000000000000B
:1032C00000000000000000000000000000000000FE
:0C32D000000000000000000000000000F2
:04000005080020EDE2
:00000001FF
